:020000040800F2
:10000000D86700200D020008A50900087B0600083B
:10001000A1090008C7020008250C00080000000024
:10002000000000000000000000000000D50A0008E9
:10003000CB020008000000002D0A0008C10B0008D8
:1000400027020008270200082702000827020008EC
:1000500027020008270200082702000827020008DC
:1000600027020008270200081103000827020008E1
:1000700027020008270200082702000827020008BC
:1000800027020008270200082702000827020008AC
:10009000270200082702000827020008270300089B
:1000A000270200082702000827020008270200088C
:1000B000270200082702000827020008270200087C
:1000C000270200082702000827020008710A00081A
:1000D000270200082702000827020008270200085C
:1000E000F70200082702000827020008270200087C
:1000F000270200082702000827020008270200083C
:10010000270200082702000827020008270200082B
:10011000270200082702000827020008270200081B
:10012000270200082702000827020008270200080B
:1001300000F002F800F05AF80AA090E8000C82449F
:100140008344AAF10107DA4501D100F04FF8AFF27C
:10015000090EBAE80F0013F0010F18BFFB1A43F0A5
:1001600001031847C8100000E81000000A444FF0CF
:10017000000C10F8013B13F0070408BF10F8014B06
:100180001D1108BF10F8015B641E05D010F8016B4B
:10019000641E01F8016BF9D113F0080F1EBF10F8AF
:1001A000014BAD1C0C1B09D16D1E58BF01F801CBD2
:1001B000FAD505E014F8016B01F8016B6D1EF9D555
:1001C0009142D6D37047000000230024002500266A
:1001D000103A28BF78C1FBD8520728BF30C148BFAA
:1001E0000B6070471FB51FBD10B510BD00F031F892
:1001F0001146FFF7F7FF00F0D1FF00F04FF803B40E
:10020000FFF7F2FF03BC00F057F8000009488047F1
:1002100009480047FEE7FEE7FEE7FEE7FEE7FEE7E8
:10022000FEE7FEE7FEE7FEE704480549054A064B00
:1002300070470000C50B000831010008D8070020F6
:10024000D8670020D8470020D84700207047704763
:100250007047754600F02CF8AE46050069465346D7
:1002600020F00700854618B020B5FFF7DDFFBDE898
:1002700020404FF000064FF000074FF000084FF00D
:10028000000B21F00701AC46ACE8C009ACE8C0099E
:10029000ACE8C009ACE8C0098D46704710B504460B
:1002A000AFF300802046BDE81040FFF7A8BF000074
:1002B000004870477407002001491820ABBEFEE7D4
:1002C00026000200704700BFFEE7704701B581B00D
:1002D0000020009009E002E00198401E0190019882
:1002E0000028F9D10098401C00904FF6FF7100984B
:1002F0008842F0DB0CBD10B54FF4806000F024F8AC
:1003000028B100F0D3FE4FF4806000F017F810BD64
:1003100010B5102000F018F820B100F0B5FE102044
:1003200000F00CF810BD10B5402000F00DF820B121
:1003300000F060FE402000F001F810BD01490860A7
:100340007047000014040140014600200022074BC2
:100350001B6803EA0102054B14331B680B4013B101
:100360000AB1012000E000207047000000040140B5
:10037000002123498279002A3AD00A46126803688C
:100380009A430B461A600A1D126803689A430B1DB4
:100390001A60027911440A6803681A430A60184A0D
:1003A0000832126803689A43154B08331A601A1D05
:1003B000126803689A43124B0C331A604279102A70
:1003C0000ED11A1F126803681A430D4B08331A60C6
:1003D0001A1D126803681A43094B0C331A600DE0AA
:1003E0000749427911440A6803681A430A6005E024
:1003F000027911440A6803689A430A607047000052
:100400000004014051B18200A2F1C042126842F0E2
:1004100001038200A2F1C042136009E08200A2F150
:10042000C0421268034B1A408300A3F1C0431A6014
:1004300070470000FEFF0F00D0E901121143C268AF
:100440001143026911434269114382691143C26930
:100450001143026A1143426A1143826A1143C26A1C
:100460001143026B114302689200A2F1C042116075
:10047000816808290BD101688900A1F1C041096890
:1004800041F0400201688900A1F1C0410A60416B5E
:100490000968426B526841EA0211426B926841EA74
:1004A0000221426B928941EA0241426B128A41EA7F
:1004B0000251426B127D41EA0261426B9269114323
:1004C0000268521C9200A2F1C0421160C16AB1F5EB
:1004D000804F1BD1816B0968826B526841EA02111F
:1004E000826B926841EA0221826B128A41EA0251D0
:1004F000826B127D41EA0261826B9269114302684C
:100500009200A2F1C042C2F8041107E06FF07042FD
:1005100001688900A1F1C041C1F8042170470000C1
:1005200030B500228B071C0F0F2303FA04F20B4B8C
:100530008C1053F824309343084C8D1044F8253028
:1005400023468C1053F824308C07240F00FA04F44F
:100550002343024C8D1044F8253030BD0800014083
:100560002DE9F0410246002500260020002300244A
:10057000002791F803C00CF00F0591F803C00CF0B0
:10058000100CBCF1000F03D091F802C04CEA050535
:1005900091F800C0BCF1000F31D0146800202BE0AE
:1005A0004FF0010C0CFA00F3B1F800C00CEA03069E
:1005B0009E4220D183004FF00F0C0CFA03F7BC438E
:1005C00005FA03FC4CEA040491F803C0BCF1280FBF
:1005D00006D14FF0010C0CFA00FCC2F814C00AE07E
:1005E00091F803C0BCF1480F05D14FF0010C0CFA93
:1005F00000FCC2F810C0401C0828D1D31460B1F828
:1006000000C0BCF1FF0F34DD546800202EE000F183
:10061000080C4FF0010808FA0CF3B1F800C00CEA1E
:1006200003069E4221D183004FF00F0C0CFA03F712
:10063000BC4305FA03FC4CEA040491F803C0BCF186
:10064000280F05D100F1080C08FA0CF8C2F8148044
:1006500091F803C0BCF1480F07D100F1080C4FF02E
:10066000010808FA0CF8C2F81080401C0828CED304
:100670005460BDE8F0810161704700BFFEE70000F3
:100680001FB50121112000F0E3F94FF48060ADF8AF
:100690000C0003208DF80E0048208DF80F0003A9F0
:1006A0001348FFF75DFF0A210220FFF739FF4FF4DF
:1006B0008060019000208DF808000C208DF8090062
:1006C00001208DF80A0001A8FFF752FE4FF4A06048
:1006D00000F0A2F928208DF8000001208DF801001B
:1006E0008DF802008DF80300684600F05DF91FBD2B
:1006F000001001401FB50121092000F0A9F9402098
:10070000ADF80C0003208DF80E0048208DF80F0086
:1007100003A91348FFF724FF06210120FFF700FF7C
:100720004020019000208DF808000C208DF8090071
:1007300001208DF80A0001A8FFF71AFE4FF4A0600F
:1007400000F06AF917208DF8000001208DF80100F3
:100750008DF802008DF80300684600F025F91FBDF2
:10076000000C01401FB50121412000F071F910205B
:10077000ADF80C0003208DF80E0048208DF80F0016
:1007800003A91348FFF7ECFE04210846FFF7C8FE53
:100790001020019000208DF808000C208DF8090031
:1007A00001208DF80A0001A8FFF7E2FD4FF4A060D8
:1007B00000F032F90A208DF8000001208DF80100C8
:1007C0008DF802008DF80300684600F0EDF81FBDBB
:1007D0000018014010B5FFF753FFFFF78BFFFFF73D
:1007E000C1FF10BD00B597B002200190002002901B
:1007F0000520039000200490059006904FF0805053
:10080000079000200890099008200A9010200B9073
:1008100000200C900E900F9010904FF4805011908B
:10082000002012901390149001A81590169008A81B
:10083000FFF702FE01210020FFF7E4FD17B000BD25
:1008400008B50121080200F0F3F801217C2000F036
:10085000FFF810208DF8030002208DF8020000033D
:10086000ADF8000069462B48FFF77AFE0320ADF88B
:10087000000069462848FFF773FE0820ADF8000025
:1008800069462648FFF76CFE02208DF8020018200A
:100890008DF803004CF20370ADF8000069461D4866
:1008A000FFF75EFE4FF68070ADF8000069461C4809
:1008B000FFF756FE1020ADF8000069461548FFF717
:1008C0004FFE2020ADF8000069461248FFF748FEB1
:1008D0008020ADF8000069460E48FFF741FE4FF456
:1008E0000060ADF8000069460A48FFF739FE4FF492
:1008F00000510848FFF7BFFE10210648FFF7BBFE76
:1009000020210448FFF7B7FE80210248FFF7B3FE1D
:1009100008BD000000140140000C01400008014027
:100920000018014010B54FF40050084908604FF41A
:100930007A70FFF7CBFC4FF400500449091F0860A0
:100940004FF47A70FFF7C2FC10BD00001414014090
:1009500008B50121502000F07BF84FF40060ADF89D
:10096000000003208DF8020010208DF80300694676
:100970000948FFF7F5FD0420ADF800006946074877
:10098000FFF7EEFD4FF400610348FFF774FE04210A
:100990000248FFF770FE08BD00100140001801403A
:1009A00000BFFEE77047000070B5002100230F2252
:1009B000C47804B3154C246804F4E064C4F5E0641E
:1009C000210AC1F10403CA40447804FA03F184788F
:1009D0001440214309010E4C0678A155047804F017
:1009E0001F050124AC4005786D11AD0005F1E0252F
:1009F000C5F8004109E0047804F01F050124AC406B
:100A0000044D0678761145F8264070BD0CED00E0E7
:100A100000E400E080E100E002490143024A116085
:100A2000704700000000FA050CED00E07047000080
:100A300029B1064A52690243044B5A6104E0034A51
:100A400052698243014B5A61704700000010024016
:100A500029B1064A92690243044B9A6104E0034AB1
:100A600092698243014B9A61704700000010024076
:100A700010B50F4801680068401E0D4A106081B92A
:100A8000EF23002240F23F11104600F063FB0948BB
:100A9000C06880F400600749C8604FF4963004498C
:100AA000086000F0C1F8044600F0D4F810BD000062
:100AB0001C000020001001400246002013890B405A
:100AC0000BB1012000E00020704701468889704783
:100AD00081817047704710B500F002F810BD00002A
:100AE0000CB50020019000903348006840F480303D
:100AF0003149086000BF3048006800F400300090C1
:100B00000198401C0190009818B90198B0F5A06FA9
:100B1000F1D12948006800F4003010B101200090A4
:100B200001E0002000900098012843D1234800688C
:100B300040F01000214908600846006820F00300DA
:100B400008600846006840F0020008601A484068E3
:100B5000194948600846406848600846406840F4C3
:100B6000806048600846406820F47C104860084671
:100B7000406840F4E81048600846006840F0807023
:100B8000086000BF0C48006800F000700028F9D031
:100B90000948406820F0030007494860084640685B
:100BA00040F00200486000BF0348406800F00C00BD
:100BB0000828F9D10CBD00000010024000200240BE
:100BC0007047000010B51348006840F0010011495B
:100BD000086008464068104908400E4948600846C9
:100BE00000680E4908400B4908600846006820F478
:100BF000802008600846406820F4FE0048604FF4FA
:100C00001F008860FFF767FF4FF00060044908602D
:100C100010BD0000001002400000FFF8FFFFF6FECC
:100C200008ED00E000BFFEE710B500BF60210448FA
:100C3000FFF742FF0028F9D00148FFF746FF10BD3B
:100C4000003001402C20C106088070474FF0C041A1
:100C5000088070470149088070470000000002606A
:100C60002DE9F84705460E4617469846DDE9099AEC
:100C700000240DE0282C0ADA19F8040005EBC40161
:100C8000009088B243463A46314600F021FA641C8F
:100C90005445EFDBBDE8F8870CB504210748084A46
:100CA000128850F8220000234EF6EE62CDE90001D2
:100CB00002210846FFF7D4FF0CBD00004C070020BE
:100CC0006E0700202DE9F04704460D4616461F46E4
:100CD000DDF82090281B401CB91B491C00FB01FAC1
:100CE0003B4632462946204600F034FA4FF00008D1
:100CF00004E04846FFF7AEFF08F10108D045F8DBF5
:100D0000BDE8F08770B505460C461646601C83B2F8
:100D1000681C81B22246284600F01CFA3046FFF7D4
:100D200099FF70BD38B5FFF78BFDFFF75BFDFFF74F
:100D3000F9FDB920FFF78AFFFF20FFF78BFF832023
:100D4000FFF788FF6820FFF785FF1420FFF7BEFA42
:100D5000BB20FFF77BFF0020FFF77CFF0020FFF7A1
:100D600079FF8020FFF776FF1420FFF7AFFAC2204B
:100D7000FFF76CFF0020FFF76DFF3020FFF76AFFE1
:100D80001420FFF7A3FAC020FFF760FF1B20FFF736
:100D900061FF0520FFF75EFF0820FFF75BFFEC20F7
:100DA000FFF758FF0020FFF755FF0120FFF752FF24
:100DB0001420FFF78BFAE320FFF748FF0020FFF72E
:100DC00049FF4F20FFF746FF0020FFF743FF4F206A
:100DD000FFF740FF1420FFF779FABD20FFF736FF39
:100DE0000020FFF737FF2020FFF734FF5220FFF7E6
:100DF00031FF1420FFF76AFABF20FFF727FF012019
:100E0000FFF728FF0420FFF725FF2C20FFF722FF24
:100E10001420FFF75BFAB120FFF718FF0020FFF75F
:100E200019FF0220FFF716FF1E20FFF713FF002017
:100E3000FFF710FF2220FFF70DFF1120FFF70AFF39
:100E40008D20FFF707FF1420FFF740FAB620FFF7C9
:100E5000FDFEC020FFF7FEFE5520FFF7FBFE4220FF
:100E6000FFF7F8FE1420FFF731FAE020FFF7EEFE5F
:100E70001320FFF7EFFE2420FFF7ECFE2320FFF7FF
:100E8000E9FE2120FFF7E6FE2120FFF7E3FE3F20E9
:100E9000FFF7E0FE1620FFF7DDFE5D20FFF7DAFE2C
:100EA0000720FFF7D7FE0620FFF7D4FE0920FFF743
:100EB000D1FE1020FFF7CEFE1720FFF7CBFE00205B
:100EC000FFF7C8FE1E20FFF7C5FE1E20FFF7C2FE7B
:100ED0001C20FFF7BFFE1B20FFF7BCFE2C20FFF7F6
:100EE000B9FE2220FFF7B6FE6920FFF7B3FE072008
:100EF000FFF7B0FE0F20FFF7ADFE1620FFF7AAFEAA
:100F00001920FFF7A7FE1820FFF7A4FEFF20FFF728
:100F1000A1FE1420FFF7DAF9B020FFF797FE0D20AD
:100F2000FFF798FE0120FFF795FE1420FFF7CEF99A
:100F30003620FFF78BFE0820FFF78CFE3A20FFF7E4
:100F400085FE5520FFF786FE2D20FFF77FFE00244B
:100F50000CE0102C04DA6104080CFFF77BFE04E0BF
:100F60006100491C88B2FFF775FE641C202CF0DB81
:100F7000002403E0A0B2FFF76DFE641C402CF9DBF7
:100F800000240CE0102C04DA6104080CFFF762FE68
:100F900004E06100491C88B2FFF75CFE641C202C51
:100FA000F0DB2120FFF752FE1120FFF74FFE142047
:100FB000FFF78CF92920FFF749FE1420FFF786F987
:100FC0000A20FFF783F90820094908601620FFF777
:100FD0003DFE5020FFF73EFE4FF6FF70EF2300224C
:100FE00040F23F1100901046FFF76CFE38BD000044
:100FF0001008014001201F4908701F481F49098837
:1010000030F81100012806D002280BD0032810D098
:10101000042824D11AE01A48C06880F400601849F6
:10102000C86025E01748006880F004001549086092
:101030001EE01348C06880F400601149C860114880
:10104000006880F004000F49086011E04FF4006070
:101050000B49086104200B49091D086008E04FF4A2
:10106000006007494861042006490831086000BF54
:1010700000BF704770070020620700206E07002045
:10108000001001400C18014006480088401C05492A
:101090000880054800780988884202D1002001496B
:1010A000088070476E0700206C0700200648008803
:1010B00018B9064800780449088003480088401E93
:1010C00001490880704700006E0700206C0700206F
:1010D0002DE9F04F06460F4691469846DDF824A0CC
:1010E0000AEB0A10144900EB010B002520E0002454
:1010F0001BE00BF10100405DC4F1070201219140AA
:101100000840C4F10701084138B17A1991B2321987
:1011100090B24246FFF7F6FD06E07A1991B2321915
:1011200090B24A46FFF7EEFD641C082CE1DB6D1C13
:10113000102DDCDBBDE8F08F8600002010B50448E0
:101140000078012803D10021084600F051F810BDB5
:101150007007002030B504460D462A20FFF776FDC3
:101160002012FFF777FDE0B2FFF774FD2812FFF7BA
:1011700071FDE8B2FFF76EFD2B20FFF767FD10123F
:10118000FFF768FDD0B2FFF765FD1812FFF762FDAB
:10119000D8B2FFF75FFDFFF755FD30BDFFF712FD39
:1011A000FFF7D6FBFFF716FBFFF7BCFD4FF400601F
:1011B00005494861042005490860FFF76DFD01E01D
:1011C000FFF7BCFFFCE700000010014014180140CD
:1011D00010B5044621460548FFF77AFC00BF71218F
:1011E0000248FFF769FC0028F9D010BD003001402B
:1011F0002DE9F04105460E46D5F8027041F2342043
:10120000FFF7E6FF002404E035F81400FFF7E0FFE5
:10121000641C032CF8DB002404E036F81400FFF70C
:10122000D7FF641CBC42F8DBBDE8F0814C1200081B
:1012300000000020740700006C0100084015000841
:101240007407002064600000C8010008410218060D
:10125000532C016DF03F100202190C8A040223FE88
:10126000FF12011F20084004FC7F092C01F83F06F3
:1012700019161906000B2AFC7F8002400430180E54
:10128000E0280838440C34444C365531200BC0401B
:101290004058644242426458720220081C22404076
:1012A00040221C3A03BA1C02023E212442463B72F1
:1012B0000420083C42427E40423C42052E0C121063
:1012C0007C10018A7CE81E3E44443840275B3C0782
:1012D000662B5C624522E732082330306A70332A7D
:1012E00009431A0C773A04015C44780A3320084E0B
:1012F0004850704844EE320B4A10304933192E5191
:101300002BFE490122ED720D6ADC668A0EAA1901D4
:1013100019AA720F4AD8EE7440E0101B1A261176F3
:10132000261A0207111CEE32200122F86A12CC1E86
:1013300042403C0242775213198229871A12857261
:10134000142AC66523463B6A15441E4444282810C7
:101350006372162008DB894A5A5424247217200825
:101360007624181818246E72181CE742241375107E
:1013700010601918087E44081010227EA239753FAB
:10138000182828243C44DD321B1EF8444444780FBE
:101390001B4244AA3A1CA62B428001244244383AFC
:1013A0001D2239FC4922321E200CFC424848784854
:1013B00048404242FC9A1F11244040E032201C3C2D
:1013C0004444422C8E8444443A219519012A7E05D6
:1013D0001977322239FB3901227C2A23777A0801D6
:1013E0001B88F0E019FB200A4850705048484444DC
:1013F000EE32251AE06039012342FE2A26222A6CA9
:10140000011A540122D63227200CC7626252524A76
:101410004A4A4646E232284C3844820129883A2911
:10142000AA19012A7C4519AA9A2A2215B24C380613
:101430005A2B222A7C762342E32A2C99180842420E
:1014400040201804021721322D6BFE92BB19556AF9
:101450002EDD3901223C4A2F11200944242428285A
:1014600018101032302AD6A51C546C2801213A31AC
:1014700022200A2424181818242442E73A32EE6C59
:10148000442828553233200C7E840408081020207C
:101490004242FC32345B18246523241832355C0840
:1014A000380801223E32361A3C1D1B020435234205
:1014B0007E4A37113B0204BB1999195811200C04BC
:1014C0000C0C142424447F04041F2A3966180A4093
:1014D00040407844020242441F3A3A661D40405C54
:1014E000624923221C2A3B222B42048929011951DB
:1014F00059663A248D190E323D1B38440C2D463A5C
:1015000002029901FF01FF018A3202323E1E0125CB
:101510001E1D35041A36041A370436381E31222DA2
:101520001335071B2039041A3D041A41041A4504D7
:1015300012051A0138120312041A05024944000068
:0400000508000131BD
:00000001FF
