:020000040800F2
:10000000F067002015020008E10B0008B3080008A3
:10001000DD0B0008FD040008B10F0008000000001F
:10002000000000000000000000000000610E000859
:100030000105000800000000690C00084D0F0008D1
:100040002F0200082F0200082F0200082F020008CC
:100050002F0200082F0200082F0200082F020008BC
:100060002F0200082F020008470500082F02000891
:100070002F0200082F0200082F0200082F0200089C
:100080002F0200082F0200082F0200082F0200088C
:100090002F0200082F0200082F0200085D0500084B
:1000A0002F0200082F0200082F0200082F0200086C
:1000B0002F0200082F0200082F0200082F0200085C
:1000C0002F0200082F0200082F020008AD0C0008C4
:1000D0002F0200082F0200082F0200082F0200083C
:1000E0002D0500082F0200082F0200082F0200082B
:1000F0002F0200082F0200082F0200082F0200081C
:100100002F0200082F0200082F0200082F0200080B
:100110002F0200082F0200082F0200082F020008FB
:100120002F0200082F0200082F0200082F020008EB
:1001300000F002F800F05EF80AA090E8000C82449B
:100140008344AAF10107DA4501D100F053F8AFF278
:10015000090EBAE80F0013F0010F18BFFB1A43F0A5
:100160000103184774140000941400000A444FF06F
:10017000000C10F8013B13F0070408BF10F8014B06
:100180001D1108BF10F8015B641E05D010F8016B4B
:10019000641E01F8016BF9D113F0080F1EBF10F8AF
:1001A000014BAD1C0C1B09D16D1E58BF01F801CBD2
:1001B000FAD505E014F8016B01F8016B6D1EF9D555
:1001C0009142D6D37047000000230024002500266A
:1001D000103A28BF78C1FBD8520728BF30C148BFAA
:1001E0000B6070471FB59DE8030000F0A9F81FBD24
:1001F00010B510BD00F000F91146FFF7F3FF01F054
:10020000D1F900F01EF903B4FFF7F2FF03BC00F0D0
:100210004FF900000948804709480047FEE7FEE71C
:10022000FEE7FEE7FEE7FEE7FEE7FEE7FEE7FEE7A6
:1002300004480549054A064B70470000510F000865
:1002400031010008F0070020F0670020F04700208F
:10025000F047002070B5064600F056F8056806F134
:100260000B0020F00704B4429CBF002070BD2B4659
:100270006A68BAB11068A04210D304F1080188423C
:100280003CBF5068586007D351681019416011682D
:10029000091B016058601460101D70BD1346526840
:1002A000002AE7D12146284600F036F80028DED1A2
:1002B00070BD70B50446051F00F026F80068002CDC
:1002C00014BF446870BD002C18BFAC423CBF204630
:1002D0006468F8D301680A18AA4218BF456003D1C0
:1002E0002A6805461144016028684119A1421CBFD3
:1002F0006C6070BD6168696021680844286070BDE9
:10030000704770477047000000487047940700200E
:10031000704770477047704738B504460A4600205A
:100320006946AFF30080002808BF38BD0246009937
:10033000204600F03FF8012038BD012000F054B8FD
:10034000F8B5AFF30080054600200C46102000BF32
:100350000646A819A0420DD9324669460020AFF3DF
:100360000080070008BF00F03FF80098A04218BFC7
:100370000546C419FFF7C8FF05600746F01D20F0C9
:1003800007004619284600F00AF8B44208BFF8BD35
:10039000A21B31463868BDE8F84000F00BB80021D8
:1003A0000160C0E901107047102070470048704795
:1003B0008C070020034640688C46002818BF8842FE
:1003C0003CBF03464068F8D318681844884207D0F9
:1003D0000CF1030020F00700001D411A521A0146DB
:1003E000081D0A60FFF765BF10B500F039F8BDE8D9
:1003F000104000F02FB870477546FFF7D7FFAE46A4
:1004000005006946534620F00700854618B020B520
:10041000FFF70EFFBDE820404FF000064FF0000749
:100420004FF000084FF0000B21F00701AC46ACE89C
:10043000C009ACE8C009ACE8C009ACE8C0098D4609
:10044000704710B50446AFF300802046BDE8104069
:10045000FFF7D9BE002801D000F02AB8704700008D
:1004600010B5012805D0002103A000F027F80120D5
:1004700010BD09A1F8E7000053494752544D454DBE
:100480003A204F7574206F662068656170206D6535
:100490006D6F7279000000003A2048656170206D30
:1004A000656D6F727920636F727275707465640028
:1004B00001491820ABBEFEE72600020070B50546D4
:1004C0000C460A2000E06D1C00F011F835B12878C8
:1004D0000028F8D102E0641C00F009F814B120787B
:1004E0000028F8D1BDE870400A20AFF3008008B5BD
:1004F00069468DF800000320ABBE08BD00BFFEE7D3
:10050000704701B581B00020009009E002E0019839
:10051000401E019001980028F9D10098401C0090DD
:100520004FF6FF7100988842F0DB0CBD10B54FF418
:10053000806000F025F828B100F0B4FF4FF480602F
:1005400000F018F810BD10B5102000F019F820B117
:1005500000F080FF102000F00DF810BD10B5402015
:1005600000F00EF820B100F035FF402000F002F856
:1005700010BD0000014908607047000014040140EC
:10058000014600200022074B1B6803EA0102054BCD
:1005900014331B680B4013B10AB1012000E00020A6
:1005A0007047000000040140002123498279002A9D
:1005B0003AD00A46126803689A430B461A600A1D2D
:1005C000126803689A430B1D1A60027911440A6885
:1005D00003681A430A60184A0832126803689A438B
:1005E000154B08331A601A1D126803689A43124BA0
:1005F0000C331A604279102A0ED11A1F1268036850
:100600001A430D4B08331A601A1D126803681A4307
:10061000094B0C331A600DE00749427911440A680E
:1006200003681A430A6005E0027911440A68036806
:100630009A430A60704700000004014051B18200F3
:10064000A2F1C042126842F001038200A2F1C0424E
:10065000136009E08200A2F1C0421268034B1A4005
:100660008300A3F1C0431A6070470000FEFF0F0033
:10067000D0E901121143C268114302691143426972
:10068000114382691143C2691143026A1143426AEC
:100690001143826A1143C26A1143026B114302681B
:1006A0009200A2F1C0421160816808290BD1016853
:1006B0008900A1F1C041096841F040020168890048
:1006C000A1F1C0410A60416B0968426B526841EA7E
:1006D0000211426B926841EA0221426B928941EA1F
:1006E0000241426B128A41EA0251426B127D41EA99
:1006F0000261426B926911430268521C9200A2F19E
:10070000C0421160C16AB1F5804F1BD1816B09688D
:10071000826B526841EA0211826B926841EA0221BF
:10072000826B128A41EA0251826B127D41EA0261B8
:10073000826B9269114302689200A2F1C042C2F832
:10074000041107E06FF0704201688900A1F1C04117
:10075000C1F804217047000030B500228B071C0F40
:100760000F2303FA04F20B4B8C1053F824309343FD
:10077000084C8D1044F8253023468C1053F8243053
:100780008C07240F00FA04F42343024C8D1044F824
:10079000253030BD080001402DE9F041024600251A
:1007A0000026002000230024002791F803C00CF04D
:1007B0000F0591F803C00CF0100CBCF1000F03D032
:1007C00091F802C04CEA050591F800C0BCF1000F99
:1007D00031D0146800202BE04FF0010C0CFA00F32C
:1007E000B1F800C00CEA03069E4220D183004FF00E
:1007F0000F0C0CFA03F7BC4305FA03FC4CEA0404A3
:1008000091F803C0BCF1280F06D14FF0010C0CFA8F
:1008100000FCC2F814C00AE091F803C0BCF1480F14
:1008200005D14FF0010C0CFA00FCC2F810C0401CBE
:100830000828D1D31460B1F800C0BCF1FF0F34DD3B
:10084000546800202EE000F1080C4FF0010808FA6F
:100850000CF3B1F800C00CEA03069E4221D18300DC
:100860004FF00F0C0CFA03F7BC4305FA03FC4CEAFB
:10087000040491F803C0BCF1280F05D100F1080C65
:1008800008FA0CF8C2F8148091F803C0BCF1480FC4
:1008900007D100F1080C4FF0010808FA0CF8C2F873
:1008A0001080401C0828CED35460BDE8F08101615F
:1008B000704700BFFEE700001FB50121112000F0C6
:1008C000E5F94FF48060ADF80C0003208DF80E00C0
:1008D00048208DF80F0003A91448FFF75DFF0A2197
:1008E0000220FFF739FF4FF48060019000208DF85F
:1008F00008000C208DF8090001208DF80A0001A8DD
:10090000FFF752FE4FF4A06000F0A4F928208DF804
:10091000000002208DF8010003208DF80200012064
:100920008DF80300684600F05DF91FBD001001401E
:100930001FB50121092000F0A9F94020ADF80C00F5
:1009400003208DF80E0048208DF80F0003A91348EE
:10095000FFF722FF06210120FFF7FEFE4020019055
:1009600000208DF808000C208DF8090001208DF87A
:100970000A0001A8FFF718FE4FF4A06000F06AF922
:1009800017208DF8000001208DF801008DF802007D
:100990008DF80300684600F025F91FBD000C0140EA
:1009A0001FB50121412000F071F91020ADF80C00B5
:1009B00003208DF80E0048208DF80F0003A913487E
:1009C000FFF7EAFE04210846FFF7C6FE102001905B
:1009D00000208DF808000C208DF8090001208DF80A
:1009E0000A0001A8FFF7E0FD4FF4A06000F032F923
:1009F0000A208DF8000001208DF801008DF802001A
:100A00008DF80300684600F0EDF81FBD00180140A6
:100A100010B5FFF751FFFFF78BFFFFF7C1FF10BDC8
:100A200000B597B0022001900020029005200390AD
:100A300000200490059006904FF080500790002011
:100A40000890099008200A9010200B9000200C902C
:100A50000E900F9010904FF4805011900020129043
:100A60001390149001A81590169008A8FFF700FEA7
:100A700001210020FFF7E2FD17B000BD08B50121FC
:100A8000080200F0F3F801217C2000F0FFF81020AC
:100A90008DF8030002208DF802000003ADF800007D
:100AA00069462B48FFF778FE0320ADF80000694641
:100AB0002848FFF771FE0820ADF800006946264877
:100AC000FFF76AFE02208DF8020018208DF803005F
:100AD0004CF20370ADF8000069461D48FFF75CFE5C
:100AE0004FF68070ADF8000069461C48FFF754FED1
:100AF0001020ADF8000069461548FFF74DFE202094
:100B0000ADF8000069461248FFF746FE8020ADF8B8
:100B1000000069460E48FFF73FFE4FF40060ADF855
:100B2000000069460A48FFF737FE4FF400510848B5
:100B3000FFF7BDFE10210648FFF7B9FE202104484B
:100B4000FFF7B5FE80210248FFF7B1FE08BD0000A7
:100B500000140140000C0140000801400018014051
:100B600010B54FF40050084908604FF47A70FFF751
:100B7000C8FC4FF400500449091F08604FF47A7014
:100B8000FFF7BFFC10BD00001414014008B501219F
:100B9000502000F07BF84FF40060ADF80000032017
:100BA0008DF8020010208DF8030069460948FFF710
:100BB000F3FD0420ADF8000069460748FFF7ECFD9F
:100BC0004FF400610348FFF772FE04210248FFF76B
:100BD0006EFE08BD001001400018014000BFFEE796
:100BE0007047000070B5002100230F22C47804B3C1
:100BF000154C246804F4E064C4F5E064210AC1F1F2
:100C00000403CA40447804FA03F184781440214371
:100C100009010E4C0678A155047804F01F05012443
:100C2000AC4005786D11AD0005F1E025C5F8004137
:100C300009E0047804F01F050124AC40044D067857
:100C4000761145F8264070BD0CED00E000E400E0B0
:100C500080E100E002490143024A11607047000050
:100C60000000FA050CED00E07047000029B1064ACB
:100C700052690243044B5A6104E0034A52698243B9
:100C8000014B5A61704700000010024029B1064A2A
:100C900092690243044B9A6104E0034A92698243D9
:100CA000014B9A61704700000010024010B50F48D8
:100CB00001680068401E0D4A106081B9EF230022D0
:100CC00040F23F11104600F049FC0948C06880F42A
:100CD00000600749C8604FF496300449086000F08E
:100CE00069F9044600F07CF910BD00001C000020EA
:100CF0000010014021B1028842F04002028004E06D
:100D000002884FF6BF731A400280704702460020E7
:100D100013890B400BB1012000E00020704730B573
:100D2000002400230C110125A540ABB21AB185881F
:100D30001D43858002E085889D43858030BD014646
:100D40008889704710B50022028802F441520B884E
:100D50004C8823438C882343CC8823430C8923432A
:100D60004C8923438C892343CC8923431A43028033
:100D7000838B4FF2FF74234083830B8A038210BD61
:100D800008B54FF4E060FFF765FF6846FFF72AFFFC
:100D900023208DF8000000208DF801008DF802005E
:100DA00001208DF803006846FFF71CFF08BD000016
:100DB00000B587B001210420FFF768FF0121080377
:100DC000FFF764FFE020ADF8040003208DF8060073
:100DD00018208DF8070001A91F48FFF7DDFC10203F
:100DE000ADF8040003208DF8060004208DF80700FC
:100DF00001A91948FFF7D0FC00211848FFF77AFF36
:100E00000020ADF80800ADF80A004FF40060ADF81E
:100E10000C000020ADF80E00ADF810004FF400708B
:100E2000ADF812003820ADF814000020ADF816001F
:100E30000720ADF8180002A90848FFF783FFFFF765
:100E40009FFF01210548FFF755FF0122602103485C
:100E5000FFF765FF07B000BD00080140003001400A
:100E6000704710B500F002F810BD00000CB500206E
:100E7000019000903348006840F4803031490860A8
:100E800000BF3048006800F4003000900198401C1A
:100E90000190009818B90198B0F5A06FF1D12948D8
:100EA000006800F4003010B10120009001E0002043
:100EB00000900098012843D12348006840F01000BA
:100EC000214908600846006820F0030008600846D1
:100ED000006840F0020008601A48406819494860FC
:100EE0000846406848600846406840F480604860B2
:100EF0000846406820F47C1048600846406840F48A
:100F0000E81048600846006840F08070086000BF44
:100F10000C48006800F000700028F9D009484068CB
:100F200020F00300074948600846406840F002008E
:100F3000486000BF0348406800F00C000828F9D161
:100F40000CBD00000010024000200240704700006D
:100F500010B51348006840F00100114908600846C8
:100F60004068104908400E494860084600680E492C
:100F700008400B4908600846006820F4802008609B
:100F80000846406820F4FE0048604FF41F00886067
:100F9000FFF767FF4FF000600449086010BD0000D4
:100FA000001002400000FFF8FFFFF6FE08ED00E031
:100FB00000BFFEE710B500BF60210448FFF7A6FEA2
:100FC0000028F9D00148FFF7BAFE10BD00300140FB
:100FD0002C20C106088070474FF0C0410880704740
:100FE0000149088070470000000002602DE9F847C1
:100FF00005460E4617469846DDE9099A00240DE09D
:10100000282C0ADA19F8040005EBC401009088B214
:1010100043463A46314600F06BFA641C5445EFDB18
:10102000BDE8F8872DE9FC4106460227B84600F0E6
:101030005BF800251CE00424104850F825001049F6
:10104000CDE90004681C31F81000B04202D14EF620
:10105000EE6001E041F2111002460023414638469D
:10106000FFF7C4FF082000EBC400384487B26D1CB2
:10107000044800788542DEDBBDE8FC815C07002087
:1010800074070020700700202DE9F04704460D4644
:1010900016461F46DDF82090281B401CB91B491C32
:1010A00000FB01FA3B4632462946204600F056FA3C
:1010B0004FF0000804E04846FFF792FF08F10108EE
:1010C000D045F8DBBDE8F08770B505460C461646FE
:1010D000601C83B2681C81B22246284600F03EFAAA
:1010E0003046FFF77DFF70BD08B541F211101423A3
:1010F000002240F23F1100901046FFF7C5FF08BDE7
:1011000038B5FFF7BBFCFFF78BFCFFF729FDB920D3
:10111000FFF762FFFF20FFF763FF8320FFF760FF09
:101120006820FFF75DFF1420FFF7EBF9BB20FFF706
:1011300053FF0020FFF754FF0020FFF751FF8020EE
:10114000FFF74EFF1420FFF7DCF9C220FFF744FF42
:101150000020FFF745FF3020FFF742FF1420FFF784
:10116000D0F9C020FFF738FF1B20FFF739FF05201B
:10117000FFF736FF0820FFF733FFEC20FFF730FFC3
:101180000020FFF72DFF0120FFF72AFF1420FFF7B3
:10119000B8F9E320FFF720FF0020FFF721FF4F20E1
:1011A000FFF71EFF0020FFF71BFF4F20FFF718FF80
:1011B0001420FFF7A6F9BD20FFF70EFF0020FFF770
:1011C0000FFF2020FFF70CFF5220FFF709FF14202C
:1011D000FFF797F9BF20FFF7FFFE0120FFF700FFA1
:1011E0000420FFF7FDFE2C20FFF7FAFE1420FFF786
:1011F00088F9B120FFF7F0FE0020FFF7F1FE022092
:10120000FFF7EEFE1E20FFF7EBFE0020FFF7E8FEE3
:101210002220FFF7E5FE1120FFF7E2FE8D20FFF709
:10122000DFFE1420FFF76DF9B620FFF7D5FEC020D2
:10123000FFF7D6FE5520FFF7D3FE4220FFF7D0FE82
:101240001420FFF75EF9E020FFF7C6FE1320FFF73A
:10125000C7FE2420FFF7C4FE2320FFF7C1FE212094
:10126000FFF7BEFE2120FFF7BBFE3F20FFF7B8FED1
:101270001620FFF7B5FE5D20FFF7B2FE0720FFF74F
:10128000AFFE0620FFF7ACFE0920FFF7A9FE1020F5
:10129000FFF7A6FE1720FFF7A3FE0020FFF7A0FE32
:1012A0001E20FFF79DFE1E20FFF79AFE1C20FFF771
:1012B00097FE1B20FFF794FE2C20FFF791FE2220C3
:1012C000FFF78EFE6920FFF78BFE0720FFF788FEF1
:1012D0000F20FFF785FE1620FFF782FE1920FFF78B
:1012E0007FFE1820FFF77CFEFF20FFF779FE142019
:1012F000FFF707F9B020FFF76FFE0D20FFF770FE34
:101300000120FFF76DFE1420FFF7FBF83620FFF7F2
:1013100063FE0820FFF764FE3A20FFF75DFE5520CC
:10132000FFF75EFE2D20FFF757FE00240CE0102C87
:1013300004DA6104080CFFF753FE04E06100491C65
:1013400088B2FFF74DFE641C202CF0DB002403E084
:10135000A0B2FFF745FE641C402CF9DB00240CE032
:10136000102C04DA6104080CFFF73AFE04E0610077
:10137000491C88B2FFF734FE641C202CF0DB2120CE
:10138000FFF72AFE1120FFF727FE1420FFF7B9F818
:101390002920FFF721FE1420FFF7B3F80A20FFF7FA
:1013A000B0F808200A4908601620FFF715FE502003
:1013B000FFF716FEFFF798FE4FF6FF70EF2314229B
:1013C00040F23F1100900020FFF75EFE38BD0000A4
:1013D000100801401C480088012806D002280BD0C4
:1013E000032810D0042824D11AE01848C06880F4DB
:1013F00000601649C86025E01548006880F00400C8
:10140000134908601EE01148C06880F400600F496D
:10141000C8600F48006880F004000D49086011E0C2
:101420004FF400600949086104200949091D08605A
:1014300008E04FF400600549486104200449083180
:10144000086000BF00BF7047720700200010014015
:101450000C18014010B56420FEF7FCFE0D49086031
:101460000D480088401C0C49088008460088062169
:1014700090FBF1F201FB1200074908800748098838
:1014800030F811000649088008460088FFF7CAFDB9
:1014900010BD00008807002082070020740700208C
:1014A0007207002010B50E480068FEF702FF0D48D5
:1014B0000088401D0B49088008460088062190FBE3
:1014C000F1F201FB1200074908800748098830F84B
:1014D00011000649088008460088FFF7A3FD10BDEB
:1014E0008807002082070020740700207207002070
:1014F0002DE9F04F06460F4691469846DDF824A0A8
:101500000AEB0A10144900EB010B002520E000242F
:101510001BE00BF10100405DC4F107020121914085
:101520000840C4F10701084138B17A1991B2321963
:1015300090B24246FFF7C8FD06E07A1991B232191F
:1015400090B24A46FFF7C0FD641C082CE1DB6D1C1D
:10155000102DDCDBBDE8F08F9600002030B504468E
:101560000D462A20FFF738FD2012FFF739FDE0B2C3
:10157000FFF736FD2812FFF733FDE8B2FFF730FD25
:101580002B20FFF729FD1012FFF72AFDD0B2FFF73D
:1015900027FD1812FFF724FDD8B2FFF721FDFFF752
:1015A00017FD30BDFFF7D4FCFFF7F0FAFFF730FA74
:1015B000FFF7A6FDFFF7FCFB4FF40060044948610C
:1015C0000420044908600520FFF72CFD00BFFEE75A
:1015D0000010014014180140F81500080000002018
:1015E0008C0700006C010008EC1800088C07002034
:1015F00064600000C80100084102180603152C01B0
:101600006DF03F100202190C8A040223FEFF120142
:101610001F20084004FC7F092C01F83F0619161909
:1016200006000B2AFC7F8002400430180EE02808D8
:1016300038440C34444C365531200BC0404058647B
:101640004242426458720220081C22404040221C40
:101650003A03CA1C02023E212442463B720420087F
:101660003C42427E40423C42052E0C12107C10014E
:101670008A7CF81E3E44443840275B3C07662B5C5E
:10168000624522E732082330306A70332A09431A50
:101690000C773A04015C44780A3320084E485070B5
:1016A0004844EE320B4A10304933192E512BFE4973
:1016B0000122ED720D6ADC668A0EAA190119AA725E
:1016C0000F4AD8EE7440E0101B1A261176261A0233
:1016D00007111CEE32200122F86A12CC1E42403C57
:1016E0000242775213198229871A128572142AC668
:1016F0006523463B6A15441E44442828106372162D
:101700002008DB894A5A54242472172008762418AA
:101710001818246E72181CE74224137510106019F3
:1017200018087E44081010227EA239753F18282818
:10173000243C44DD321B1EF8444444780F1B4244D1
:10174000AA3A1CA62B428001244244383A1D223971
:10175000FC4922321E200CFC42484878484840424E
:1017600042FC9A1F11244040E032201C3C44444279
:101770002C8E8444443A219519012A7E051977322A
:101780002239FB3901227C2A23777A08011B88F051
:10179000E019FB200A4850705048484444EE322576
:1017A0001AE06039012342FE2A26222A6C011A54CB
:1017B0000122D63227200CC7626252524A4A4A4658
:1017C00046E232284C3844820129883A29AA190174
:1017D0002A7C4519AA9A2A2215B24C38065A2B227D
:1017E0002A7C762342E32A2C99180842424020188A
:1017F00004021721322D6BFE92BB19556A2EDD397A
:1018000001223C4A2F1120094424242828181010B2
:1018100032302AD6A51C546C2801213A3122200AE4
:101820002424181818242442E73A32EE6C4428285D
:10183000553233200C7E840408081020204242FCDC
:1018400032345B18246523241832355C08380801CB
:10185000223E32361A3C1D1B02043523427E4A3793
:10186000113B0204BB1999195811200C040C0C14DB
:101870002424447F04041F2A3966180A4040407813
:1018800044020242441F3A3A661D40405C624923CA
:10189000221C2A3B222B4204892901195159663AFC
:1018A000248D190E323D1B38440C2D463A02029904
:1018B00001FF01FF018A3202323E1E01251E1D3545
:1018C000041A36041A370436381E31222D13450700
:1018D0001B2049041A4D041A51041A550452051AC2
:0C18E000013C120312041A0502A10000D2
:0400000508000131BD
:00000001FF
